{
  "_format": "hh-sol-artifact-1",
  "contractName": "MerkleAirdrop",
  "sourceName": "contracts/MerkleAirdrop.sol",
  "abi": [
    {
      "inputs": [
        {
          "internalType": "address",
          "name": "_tokenAddress",
          "type": "address"
        },
        {
          "internalType": "bytes32",
          "name": "_merkleRoot",
          "type": "bytes32"
        }
      ],
      "stateMutability": "nonpayable",
      "type": "constructor"
    },
    {
      "anonymous": false,
      "inputs": [],
      "name": "ClaimSuccessful",
      "type": "event"
    },
    {
      "inputs": [
        {
          "internalType": "address",
          "name": "",
          "type": "address"
        }
      ],
      "name": "hasClaimed",
      "outputs": [
        {
          "internalType": "bool",
          "name": "",
          "type": "bool"
        }
      ],
      "stateMutability": "view",
      "type": "function"
    },
    {
      "inputs": [],
      "name": "merkleRoot",
      "outputs": [
        {
          "internalType": "bytes32",
          "name": "",
          "type": "bytes32"
        }
      ],
      "stateMutability": "view",
      "type": "function"
    },
    {
      "inputs": [],
      "name": "tokenAddress",
      "outputs": [
        {
          "internalType": "address",
          "name": "",
          "type": "address"
        }
      ],
      "stateMutability": "view",
      "type": "function"
    },
    {
      "inputs": [
        {
          "internalType": "bytes32[]",
          "name": "proof",
          "type": "bytes32[]"
        },
        {
          "internalType": "uint256",
          "name": "amount",
          "type": "uint256"
        }
      ],
      "name": "verifyClaim",
      "outputs": [],
      "stateMutability": "nonpayable",
      "type": "function"
    }
  ],
  "bytecode": "0x608060405234801561001057600080fd5b50604051610b32380380610b328339818101604052810190610032919061015a565b336000806101000a81548173ffffffffffffffffffffffffffffffffffffffff021916908373ffffffffffffffffffffffffffffffffffffffff16021790555081600160006101000a81548173ffffffffffffffffffffffffffffffffffffffff021916908373ffffffffffffffffffffffffffffffffffffffff16021790555080600281905550505061019a565b600080fd5b600073ffffffffffffffffffffffffffffffffffffffff82169050919050565b60006100f1826100c6565b9050919050565b610101816100e6565b811461010c57600080fd5b50565b60008151905061011e816100f8565b92915050565b6000819050919050565b61013781610124565b811461014257600080fd5b50565b6000815190506101548161012e565b92915050565b60008060408385031215610171576101706100c1565b5b600061017f8582860161010f565b925050602061019085828601610145565b9150509250929050565b610989806101a96000396000f3fe608060405234801561001057600080fd5b506004361061004c5760003560e01c80632eb4a7ab1461005157806373b2e80e1461006f5780637eb1286f1461009f5780639d76ea58146100bb575b600080fd5b6100596100d9565b604051610066919061043d565b60405180910390f35b610089600480360381019061008491906104ca565b6100df565b6040516100969190610512565b60405180910390f35b6100b960048036038101906100b491906106e8565b6100ff565b005b6100c3610355565b6040516100d09190610753565b60405180910390f35b60025481565b60036020528060005260406000206000915054906101000a900460ff1681565b600360003373ffffffffffffffffffffffffffffffffffffffff1673ffffffffffffffffffffffffffffffffffffffff16815260200190815260200160002060009054906101000a900460ff161561018c576040517f08c379a0000000000000000000000000000000000000000000000000000000008152600401610183906107cb565b60405180910390fd5b600033826040516020016101a19291906107fa565b604051602081830303815290604052805190602001206040516020016101c79190610844565b6040516020818303038152906040528051906020012090506101ec836002548361037b565b61022b576040517f08c379a0000000000000000000000000000000000000000000000000000000008152600401610222906108ab565b60405180910390fd5b6001600360003373ffffffffffffffffffffffffffffffffffffffff1673ffffffffffffffffffffffffffffffffffffffff16815260200190815260200160002060006101000a81548160ff021916908315150217905550600160009054906101000a900473ffffffffffffffffffffffffffffffffffffffff1673ffffffffffffffffffffffffffffffffffffffff1663a9059cbb33846040518363ffffffff1660e01b81526004016102e09291906107fa565b6020604051808303816000875af11580156102ff573d6000803e3d6000fd5b505050506040513d601f19601f8201168201806040525081019061032391906108f7565b507faf30edc11500acfa51a751c1790697f8c5c344d299f477009ec9d91c1941a07d60405160405180910390a1505050565b600160009054906101000a900473ffffffffffffffffffffffffffffffffffffffff1681565b6000826103888584610392565b1490509392505050565b60008082905060005b84518110156103d7576103c8828683815181106103bb576103ba610924565b5b60200260200101516103e2565b9150808060010191505061039b565b508091505092915050565b60008183106103fa576103f5828461040d565b610405565b610404838361040d565b5b905092915050565b600082600052816020526040600020905092915050565b6000819050919050565b61043781610424565b82525050565b6000602082019050610452600083018461042e565b92915050565b6000604051905090565b600080fd5b600080fd5b600073ffffffffffffffffffffffffffffffffffffffff82169050919050565b60006104978261046c565b9050919050565b6104a78161048c565b81146104b257600080fd5b50565b6000813590506104c48161049e565b92915050565b6000602082840312156104e0576104df610462565b5b60006104ee848285016104b5565b91505092915050565b60008115159050919050565b61050c816104f7565b82525050565b60006020820190506105276000830184610503565b92915050565b600080fd5b6000601f19601f8301169050919050565b7f4e487b7100000000000000000000000000000000000000000000000000000000600052604160045260246000fd5b61057b82610532565b810181811067ffffffffffffffff8211171561059a57610599610543565b5b80604052505050565b60006105ad610458565b90506105b98282610572565b919050565b600067ffffffffffffffff8211156105d9576105d8610543565b5b602082029050602081019050919050565b600080fd5b6105f881610424565b811461060357600080fd5b50565b600081359050610615816105ef565b92915050565b600061062e610629846105be565b6105a3565b90508083825260208201905060208402830185811115610651576106506105ea565b5b835b8181101561067a57806106668882610606565b845260208401935050602081019050610653565b5050509392505050565b600082601f8301126106995761069861052d565b5b81356106a984826020860161061b565b91505092915050565b6000819050919050565b6106c5816106b2565b81146106d057600080fd5b50565b6000813590506106e2816106bc565b92915050565b600080604083850312156106ff576106fe610462565b5b600083013567ffffffffffffffff81111561071d5761071c610467565b5b61072985828601610684565b925050602061073a858286016106d3565b9150509250929050565b61074d8161048c565b82525050565b60006020820190506107686000830184610744565b92915050565b600082825260208201905092915050565b7f41697264726f7020616c726561647920636c61696d65642e0000000000000000600082015250565b60006107b560188361076e565b91506107c08261077f565b602082019050919050565b600060208201905081810360008301526107e4816107a8565b9050919050565b6107f4816106b2565b82525050565b600060408201905061080f6000830185610744565b61081c60208301846107eb565b9392505050565b6000819050919050565b61083e61083982610424565b610823565b82525050565b6000610850828461082d565b60208201915081905092915050565b7f496e76616c69642070726f6f6600000000000000000000000000000000000000600082015250565b6000610895600d8361076e565b91506108a08261085f565b602082019050919050565b600060208201905081810360008301526108c481610888565b9050919050565b6108d4816104f7565b81146108df57600080fd5b50565b6000815190506108f1816108cb565b92915050565b60006020828403121561090d5761090c610462565b5b600061091b848285016108e2565b91505092915050565b7f4e487b7100000000000000000000000000000000000000000000000000000000600052603260045260246000fdfea264697066735822122074cdf6ca9268a70e2050f49b81f1f066b2587db636618c578e77d8ac3097fe9b64736f6c63430008180033",
  "linkReferences": {},
  "deployedLinkReferences": {}
}